S01300004F62726F746F6D6965727A2E7372656375
S11300000C942A000C9447000C9447000C9447006D
S11300100C9447000C94BC020C948D020C94470081
S11300200C9447000C94A4020C9447000C944700D1
S11300300C9447000C9447000C9447000C94470020
S11300400C9447000C9447000C9447000C94470010
S11300500C94470011241FBECFE5D8E0DEBFCDBF0E
S113006010E0A0E6B0E0ECECF5E002C005900D92E3
S1130070A836B107D9F720E0A8E6B0E001C01D9288
S1130080AD36B207E1F70E94C7020C94E4020C9467
S11300900000CF93DF93CDB7DEB765970FB6F89422
S11300A0DEBF0FBECDBF42E062E370E0CE01019639
S11300B00E949301811109C06FE1CE0101960E9453
S11300C0D401CE0101960E94DA0165960FB6F89428
S11300D0DEBF0FBECDBFDF91CF910895FC01A0819B
S11300E0B1814E9121E030E0C901028002C0880F45
S11300F0991F0A94E2F7842B8C938FE797E001977A
S1130100F1F700C00000A081B1814E91C9010280C5
S113011002C0880F991F0A94E2F7809584238C9378
S11301208FE391E00197F1F700C00000A081B18155
S113013012974C91C901028002C0880F991F0A943A
S1130140E2F78423EFE3F6E03197F1F700C0000013
S11301500895FC01A081B1814E9121E030E0C901F4
S1130160028002C0880F991F0A94E2F7842B8C93B3
S11301706623A1F080E58A95F1F7A081B1814E91C3
S1130180C901028002C0880F991F0A94E2F7809582
S113019084238C9390EF9A95F1F708958FEE90E075
S11301A00197F1F700C00000A081B1814E9121E0D8
S11301B030E0C901028002C0880F991F0A94E2F757
S11301C0809584238C930895FC01A081B1814E9184
S11301D021E030E0C901028002C0880F991F0A940F
S11301E0E2F7842B8C9385E18A95F1F70000A081D6
S11301F0B1814E91C901028002C0880F991F0A94EF
S1130200E2F7809584238C938AE28A95F1F700C003
S1130210A081B18112978C9190E0028002C09595E3
S113022087950A94E2F78170EFEBF0E03197F1F7EC
S113023000C000000895EF92FF920F931F93CF9395
S1130240DF938C01E62EC8E0D0E0FF24F3946F2DF9
S11302506E21C8010E94A900FF0C21972097B9F7CD
S1130260DF91CF911F910F91FF90EF900895EF923E
S1130270FF920F931F93CF93DF938C01C8E0D0E0DC
S1130280FF24F394E12CC8010E94E4008111EF28BB
S1130290FF0C21972097B9F78E2DDF91CF911F91F5
S11302A00F91FF90EF900895662391F0282FE82F87
S11302B0F92F80E09191892798E03CE8869508F42D
S11302C083279A95D9F79E2F921B961798F3089532
S11302D080E00895EF92FF920F931F93CF93DF93E3
S11302E08C0163E30E941B01E801239678018BE0F3
S11302F0E80EF11CC8010E9437018993CE15DF0571
S1130300C9F767E0C80103960E94540191E0F8011F
S11303102285821390E0892FDF91CF911F910F9155
S1130320FF90EF900895CF93DF93EC017983688376
S11303304A83FB01208181E090E0FC0102C0EE0FC2
S1130340FF1F4A95E2F7AF0140954223FB0140832A
S1130350E881F98122910A8002C0880F991F0A94CA
S1130360E2F7809582238083CE010E946E00811182
S113037013C0CE010E946A01882381F08B818031F1
S113038041F0883269F481E08C8B8FE78F8780E0BD
S113039008C01C8A80E005C081E003C081E001C080
S11303A081E0DF91CF910895FC012489213009F483
S11303B067870895CF93DF93EC010E946E006CEC85
S11303C0CE010E941B016EE4CE010E941B016D85CB
S11303D0CE010E941B016E85CE010E941B018C89F7
S11303E0813021F46F85CE010E941B01DF91CF91F2
S11303F0089580FF02C0C39A01C0C39881FF02C060
S1130400C49A01C0C49882FF02C0C59A01C0C598AD
S113041083FF02C0C69A0895C6980895CF93C82F43
S1130420C19A82958F700E94F901C198C19A8C2F4C
S11304300E94F901C19880E18A95F1F700C0CF913B
S1130440089598B398BB0E940E02089598B398BB80
S11304500E940E020895CF93DF93EC0188818823D4
S113046031F021960E94260289918111FBCFDF9100
S1130470CF91089590E4699F800D112480680E94B3
S11304802102089581E00E94210283EF91E0019707
S1130490F1F700C000000895CF93BB9ABC9ABD9AAF
S11304A0BE9AB99A87B387BB85EA9EE00197F1F7B4
S11304B000C0000088B388BBC198C3E0C19A83E040
S11304C00E94F901C19881EE94E00197F1F700C010
S11304D00000C15099F7C19A82E00E94F901C198C5
S11304E089EF90E00197F1F700C0000088E20E94D4
S11304F0210288E00E94210281E00E94210283EF10
S113050091E00197F1F700C0000086E00E9421020B
S11305108CE00E942102CF9108951F920F920FB692
S11305200F9211248F939F9386B597B590936A0089
S11305308093690081E080936C009F918F910F906C
S11305400FBE0F901F9018951F920F920FB60F9227
S113055011248F93809168008F5F809368008530A9
S113056029F481E080936C0080936B008F910F904D
S11305700FBE0F901F9018951F920F920FB60F92F7
S1130580112497980F900FBE0F901F9018950E94FA
S11305904C020E944900789460E080E00E943A0294
S11305A080E690E00E942B022FEF84E39CE0215030
S11305B080409040E1F700C000000E94420260E0E9
S10F05C080E00E943A02FFCFF894FFCFC5
S10B05CC20576974616A000004
S9030000FC
